:1000000024C03EC03DC03CC03BC030C539C038C034
:1000100037C036C035C0ABC123C258C131C030C0B3
:100020002FC02EC02DC02CC02BC02AC02AC028C073
:1000300027C026C025C024C023C022C04EC053C044
:100040005FC064C07CC089C096C011241FBECFEFC2
:10005000D2E0DEBFCDBF11E0A0E0B1E0EEE3F1E120
:1000600002C005900D92A230B107D9F721E0A2E0BD
:10007000B1E001C01D92A13DB207E1F7CDD25DC84C
:10008000BFCF1F920F920FB60F9211242F933F9361
:100090004F935F936F937F938F939F93AF93BF9390
:1000A000CF93DF93EF93FF93D89A20918000422F54
:1000B00050E0E0911601AE2FB0E0AA0FBB1FAA5F7F
:1000C000BE4F4D935C938E2F90E08730910508F0E2
:1000D000AEC0FC01E25EFF4F0994E6E0F1E0218B47
:1000E00081E0808BAAC020931801223021F482E0A5
:1000F00080931601A2C086E08093160118959DC0DA
:10010000E6E0F1E0238B83E0808B97C080911901BA
:10011000833571F4E6E0F1E08789A82FB0E0AA5FAB
:10012000BE4F54962C938F5F878B84E0808B85C065
:100130008F3309F082C086E0809316017EC0E6E02E
:10014000F1E08789A82FB0E0AA5FBE4F54962C93A8
:100150008F5F878B85E0808B70C0E6E0F1E0878958
:10016000A82FB0E0AA5FBE4F54962C938F5F878B69
:1001700086E0808B62C04A30510509F051C0809101
:100180001901833509F047C0C6E0D1E08C8990E0C1
:10019000AC01440F551F42955295507F5427407F24
:1001A0005427481B590B440F551F440F551F840FEC
:1001B000951FAC01440F551F440F551F440F551F89
:1001C0009D89292F30E0C901880F991F820F931F45
:1001D000BC01660F771F62957295707F7627607FEE
:1001E0007627860F971F280F391F240F351F8E89FA
:1001F00090E0AC01440F551F440F551F840F951F0D
:10020000880F991F820F931F72D41C8A1D8A1E8A21
:1002100081E0888F05C08F3319F481E080931E013F
:10022000E6E0F1E0108A178A138A128A06C0E6E037
:10023000F1E0108A178A138A128AFF91EF91DF91F9
:10024000CF91BF91AF919F918F917F916F915F916E
:100250004F913F912F910F900FBE0F901F901895C7
:10026000D09AD898E6E0F1E0108A138A178A1092A3
:10027000820083E380938100E5E8F0E0808188617B
:100280008083E4E8F0E0808186608083E5E6F0E04A
:100290008081816080830895E6E8F0E0908195FF99
:1002A000FDCF80938000089520E030E040E251E4EB
:1002B00094D4FBD4862FF0DF089520E030E04AE7A5
:1002C00054E4D5D5F2D4862FE7DF08951F920F921C
:1002D0000FB60F9211242F933F934F935F936F9319
:1002E0007F938F939F93AF93BF93CF93DF93EF93BE
:1002F000FF9366B177B180E090E003D5CFE6D1E01F
:100300009B01AC01B4D59B01AC01688179818A81E4
:100310009B81FBD3688379838A839B8380910401CB
:100320009091050101969093050180930401FF913E
:10033000EF91DF91CF91BF91AF919F918F917F917D
:100340006F915F914F913F912F910F900FBE0F9042
:100350001F90189599B129B19095922399B989B9AF
:100360002E9A0895409A8BE0F5DF409808951F92E9
:100370000F920FB60F921124CF92DF92EF92FF925D
:100380002F933F934F935F936F937F938F939F939D
:10039000AF93BF93CF93DF93EF93FF9380910001CF
:1003A00090910101892B29F02E9A1092010110924F
:1003B000000180910201909103018630910534F48F
:1003C0000196909303018093020133C02B98CFE6EE
:1003D000D1E0C0900401D09005010D2C000CEE0876
:1003E000FF08C701B6018FD49B01AC0168817981F8
:1003F0008A819B81F2D3AAD520E030E04AE754E419
:1004000036D5609373017093740180937501909356
:10041000760153DF1092050110920401109203013E
:1004200010920201188219821A821B8288EC82BF04
:1004300099DFFF91EF91DF91CF91BF91AF919F91A4
:100440008F917F916F915F914F913F912F91FF908D
:10045000EF90DF90CF900F900FBE0F901F901895E8
:100460001F920F920FB60F9211248F939F93EF93C9
:10047000FF935398E6E6F0E0908188E08927808337
:10048000908180E2892780839AB181E089278AB9A7
:10049000539AFF91EF919F918F910F900FBE0F9004
:1004A0001F9018958AB19AB1809589238AB98BB12A
:1004B0009BB1809589238BB98BB1806C8BB98AB144
:1004C00087608AB9539A0895CF92DF92EF92FF9294
:1004D000CF93DF93CBE7D1E02C813D814E815F81CB
:1004E000C6D46B017C016C837D838E839F838A8558
:1004F0009B85BC0180E090E004D49B01AC01C70166
:10050000B601B5D4D2D37093C5006093C400DF9117
:10051000CF91FF90EF90DF90CF90089560E070E072
:1005200080E89FE3D1DFD49AD69A8091850190919B
:1005300086019093C1008093C000AAECB0E08C913A
:100540009C91809589238C93E9ECF0E080819081E7
:100550008095892380838C9182688C9380818861C7
:100560008083A7E6B0E08C9180688C93A8E6B0E029
:100570008C9188608C93A6E6B0E08C919C918095DC
:1005800089238C938C9180628C938081816080839D
:1005900008950F931F93CF93DF93CBE7D1E0688348
:1005A00079838A839B832C833D834E835F83198762
:1005B0000887980140E050E040D5B22FA32FF42FD8
:1005C000E52F60E072E18AE790E02B2F3A2F4F2F62
:1005D0005E2F0FD5215031093B872A879FDF62DFCD
:1005E000DF91CF911F910F91089585EF92E00895CB
:1005F0000F931F9301E010E026E636E646E25FE344
:1006000060E576E480E090E0C4DF0CD029DE85EF81
:1006100092E01F910F910895789488EF92E0FC0189
:100620000995FDCF8EB5887F8EBD1DBC1CBC15BC49
:1006300014BC8EB580648EBD78987D9A8EB583602B
:100640008EBDE7E8F1E088E998E093A782A71092D1
:10065000C5011092C6011092C7011092C80112AED6
:1006600013AE14AE15AE1092CD011092CE011092C1
:10067000CF011092D00108952F923F924F925F9236
:100680006F927F928F929F92AF92BF92CF92DF92A2
:10069000EF92FF920F931F93CF93DF93E7E8F1E080
:1006A00080809180A280B38060A471A41614170486
:1006B000F4F5EF0100E010E0412C512CC12CD12CBD
:1006C0007601312C212C20E030E040EC5FE3682DF6
:1006D000792D8A2D9B2DCBD388809980AA80BB80D1
:1006E000282D392D4A2D5B2DBED388234CF018823E
:1006F00019821A821B82832C922CA12CB12C10C03F
:10070000282D392D4A2D5B2DC701B601FED16B0175
:100710007C01188219821A821B828FEF481A580AAC
:100720000F5F1F4F2496061517056CF205C0412C6C
:10073000512CC12CD12C7601B201550C880B990B90
:10074000E2D29B01AC01C701B60147D26093B70169
:100750007093B8018093B9019093BA01DF91CF9162
:100760001F910F91FF90EF90DF90CF90BF90AF90CF
:100770009F908F907F906F905F904F903F902F90C1
:1007800008954F925F926F927F928F929F92AF9255
:10079000BF92CF92DF92EF92FF920F931F93CF936E
:1007A000DF93CDB7DEB728970FB6F894DEBF0FBE44
:1007B000CDBF07E811E0D8019A966D917C919B9787
:1007C00080E090E09ED26D837E838F839887F801CE
:1007D000C4A4D5A4E6A4F7A4A701960195D14B0122
:1007E0005C014090C5015090C6016090C7017090B7
:1007F000C801D801D6962D913D914D915C91D99724
:1008000084D1A301920133D369837A838B839C8340
:1008100020E030E04EED53E426D318166CF480E06F
:1008200090E0AEEDB3E48093BD019093BE01A09340
:10083000BF01B093C0011FC020E030E0A901698171
:100840007A818B819C81C5D188236CF089819A81C2
:10085000AB81BC818093BD019093BE01A093BF0189
:10086000B093C00108C01092BD011092BE01109259
:10087000BF011092C00120E030E040E85DE3C50117
:10088000B401F5D269837A838B839C8326EA3BE9A2
:1008900044E45BE36091BD017091BE018091BF01B2
:1008A0009091C001E4D29B01AC0169817A818B8176
:1008B0009C812BD169837A838B839C832091CD018A
:1008C0003091CE014091CF015091D001C701B601C6
:1008D0001BD12AE037ED43EA5DE3C9D2A3019201BF
:1008E0007CD19B01AC0169817A818B819C810CD187
:1008F0002B013C0120E030E04EED53E4B4D2181659
:100900006CF480E090E0AEEDB3E48093BD01909391
:10091000BE01A093BF01B093C00110C020E030E041
:10092000A901C301B20155D1882344F41092BD013D
:100930001092BE011092BF011092C0018092C101BD
:100940009092C201A092C301B092C401C092CD01A5
:10095000D092CE01E092CF01F092D001A30192019A
:100960006D817E818F819885CFD09B01AC016D8197
:100970007E818F81988531D1A7DD28960FB6F894B6
:10098000DEBF0FBECDBFDF91CF911F910F91FF90C2
:10099000EF90DF90CF90BF90AF909F908F907F901F
:1009A0006F905F904F9008950F931F93CF93DF93B5
:1009B000C7E8D1E02CA93DA940E050E068E478EE1A
:1009C00081E090E016D3622F70E080E090E099D152
:1009D00020E030E040E752E44AD220E030E040E45A
:1009E00050E4FBD06CA77DA78EA79FA728A539A5AB
:1009F0002A30310594F4F901EE0FFF1FEE0FFF1FAF
:100A0000E957FE4F6083718382839383C901019606
:100A10009093B0018093AF0124C02EDEC7E8D1E0EF
:100A200068A979A98AA99BA93FDC09EC11E020E01B
:100A300034E244EF57E4F80160817181828193814F
:100A4000CCD06093C5017093C6018093C701909389
:100A5000C80197DEF801108211821282138219A652
:100A600018A6DF91CF911F910F9108951F920F92B9
:100A70000FB60F9211242F933F934F935F936F9371
:100A80007F938F939F93AF93BF93CF93DF93EF9316
:100A9000FF9364B575B57093BC016093BB01C9EC5D
:100AA000D1E080E090E02DD19B01AC01688179819B
:100AB0008A819B812AD0688379838A839B8374DFB0
:100AC00015BC14BC1DBC1CBCFF91EF91DF91CF91F4
:100AD000BF91AF919F918F917F916F915F914F9156
:100AE0003F912F910F900FBE0F901F901895E7E840
:100AF000F1E093A782A712AE13AE14AE15AE16AAFC
:100B000017AA10AE11AE08955058BB27AA270ED0D1
:100B100070C161D130F066D120F031F49F3F11F403
:100B20001EF456C10EF4E095E7FB4CC1E92F72D1DB
:100B300080F3BA17620773078407950718F071F4FA
:100B40009EF58AC10EF4E0950B2EBA2FA02D0B0155
:100B5000B90190010C01CA01A0011124FF27591B02
:100B600099F0593F50F4503E68F11A16F040A22F08
:100B7000232F342F4427585FF3CF46953795279579
:100B8000A795F0405395C9F77EF41F16BA0B620B78
:100B9000730B840BBAF09150A1F0FF0FBB1F661FBF
:100BA000771F881FC2F70EC0BA0F621F731F841F02
:100BB00048F4879577956795B795F7959E3F08F028
:100BC000B3CF9395880F08F09927EE0F97958795E7
:100BD0000895D4D008F481E008950CD00AC102D160
:100BE00040F0F9D030F021F45F3F19F0EBC0511123
:100BF00034C1EEC00FD198F39923C9F35523B1F353
:100C0000951B550BBB27AA2762177307840738F07B
:100C10009F5F5F4F220F331F441FAA1FA9F333D0DA
:100C20000E2E3AF0E0E830D091505040E695001C8E
:100C3000CAF729D0FE2F27D0660F771F881FBB1F4A
:100C4000261737074807AB07B0E809F0BB0B802D24
:100C5000BF01FF2793585F4F2AF09E3F510568F070
:100C6000B1C0FBC05F3FECF3983EDCF3869577950F
:100C70006795B795F7959F5FC9F7880F911D969572
:100C8000879597F90895E1E0660F771F881FBB1FCE
:100C9000621773078407BA0720F0621B730B840B7B
:100CA000BA0BEE1F88F7E0950895BCD088F09F57E7
:100CB00090F0B92F9927B751A0F0D1F0660F771FA8
:100CC000881F991F1AF0BA95C9F712C0B13081F088
:100CD000C3D0B1E00895C0C0672F782F8827B85FD0
:100CE00039F0B93FCCF3869577956795B395D9F7E9
:100CF0003EF490958095709561957F4F8F4F9F4FF3
:100D00000895E89409C097FB3EF4909580957095FE
:100D100061957F4F8F4F9F4F9923A9F0F92F96E947
:100D2000BB279395F695879577956795B795F111BC
:100D3000F8CFFAF4BB0F11F460FF1BC06F5F7F4F59
:100D40008F4F9F4F16C0882311F096E911C077236B
:100D500021F09EE8872F762F05C0662371F096E874
:100D6000862F70E060E02AF09A95660F771F881F43
:100D7000DAF7880F9695879597F90895990F0008E7
:100D8000550FAA0BE0E8FEEF16161706E807F9075D
:100D9000C0F012161306E407F50798F0621B730BF8
:100DA000840B950B39F40A2661F0232B242B252B79
:100DB00021F408950A2609F4A140A6958FEF811D1C
:100DC000811D089597F99F6780E870E060E00895BD
:100DD0009FEF80EC089500240A9416161706180653
:100DE0000906089500240A9412161306140605062F
:100DF0000895092E0394000C11F4882352F0BB0FC0
:100E000040F4BF2B11F460FF04C06F5F7F4F8F4F22
:100E10009F4F089557FD9058440F551F59F05F3F5D
:100E200071F04795880F97FB991F61F09F3F79F00C
:100E300087950895121613061406551FF2CF46958E
:100E4000F1DF08C0161617061806991FF1CF869510
:100E50007105610508940895E894BB2766277727F4
:100E6000CB0197F908958ADF08F48FEF08950AD02F
:100E7000C0CFB1DF28F0B6DF18F0952309F0A2CF7C
:100E8000A7CFEBCFC7DFA8F39923D9F35523C9F335
:100E9000950F50E0551FAA27EE27FF27BB270024F8
:100EA0000894679520F4E20FF31FB41F0A1E220F67
:100EB000331F441FAA1F6695A9F7779530F4F30FE7
:100EC000B41F0A1E121E08F46395330F441FAA1F95
:100ED000221F769599F7879520F4B40F0A1E121EEB
:100EE000631F440FAA1F221F331F8695A9F7862F61
:100EF000712D602D11249F5750408AF0E1F0882316
:100F00004AF0EE0FFF1FBB1F661F771F881F91500F
:100F10005040A9F79E3F510570F054CF9ECF5F3FE0
:100F2000ECF3983EDCF3869577956795B795F79542
:100F3000E7959F5FC1F7FE2B880F911D96958795CA
:100F400097F9089511F40EF443CF3EC06BDFD0F350
:100F50009923D9F3CEF39F57550B87FF43D0002435
:100F6000A0E640EA900180585695979528F4805C59
:100F7000660F771F881F20F026173707480730F4C1
:100F8000621B730B840B202931294A2BA6951794D9
:100F90000794202531254A2758F7660F771F881FA9
:100FA00020F026173707480730F4620B730B840BC9
:100FB000200D311D411DA09581F7B901842F915855
:100FC000880F9695879508959F3F31F0915020F4B2
:100FD000879577956795B795880F911D9695879515
:100FE00097F9089591505040660F771F881FD2F7E8
:100FF0000895A1E21A2EAA1BBB1BFD010DC0AA1F5A
:10100000BB1FEE1FFF1FA217B307E407F50720F071
:10101000A21BB30BE40BF50B661F771F881F991FEC
:101020001A9469F760957095809590959B01AC0135
:10103000BD01CF01089568940013E894A0E0B0E0EA
:10104000E3E2F8E01DC0EFEFE7F959016A015E2322
:10105000550FEE08FE2C87019B01AC019E23990FD2
:10106000660B762FCB013BD0CDB7DEB7EAE024C0CC
:101070002F923F924F925F926F927F928F929F92A8
:10108000AF92BF92CF92DF92EF92FF920F931F9396
:10109000CF93DF93CDB7DEB7CA1BDB0B0FB6F89447
:1010A000DEBF0FBECDBF09942A88398848885F8487
:1010B0006E847D848C849B84AA84B984C884DF80F8
:1010C000EE80FD800C811B81AA81B981CE0FD11DDC
:1010D0000FB6F894DEBF0FBECDBFED010895DF93CC
:1010E000CF939F92A0E49A2E0024D001E001F0015A
:1010F00016950795F794E794D794C794B794A79457
:1011000048F41068A20FB31FC41FD51FE61FF71FB6
:10111000081E191E220F331F441F551F661F771FFD
:10112000881F991F9A9421F79D01AE01BF01C0014C
:0E11300011249F90CF91DF910895F894FFCF86
:02113E000100AE
:04000003000005F004
:00000001FF
