:100000001DC02CC02BC02AC029C028C027C026C0B4
:1000100025C024C023C022C022C020C01FC01EC0D3
:100020001DC01CC01BC01AC019C018C017C016C004
:1000300015C014C013C012C011C010C011241FBEBF
:10004000CFEFD2E0DEBFCDBF21E0A0E0B1E001C044
:100050001D92A030B207E1F77FD08BC0D1CF1F92A5
:100060000F920FB60F9211242F938F939F93539853
:1000700098B381E0982798BB28B392E0922798BB69
:100080009AB189278AB9539A9F918F912F910F9096
:100090000FBE0F901F9018958AB19AB18095892351
:1000A0008AB98BB19BB1809589238BB98BB1806C58
:1000B0008BB95C9A8AB183608AB9539A0895CF93B9
:1000C000DF93AAECB0E08C919C91809589238C936E
:1000D000E9ECF0E08081908180958923808348E677
:1000E00050E0EA018881988180958923888387E69A
:1000F00090E0EC01288138812095232328838C917E
:1001000080648C938C9183608C93808188608083E1
:10011000808181608083FA01808188608083E6E647
:10012000F0E0808190818095892380838081826046
:1001300080838FEF8093C7009BE49093C6008093E9
:10014000C5008EEA8093C40081B391B38095892362
:1001500081BBDF91CF910895B89AB99AD29A9CDF6A
:10016000AEDF98B388B39095892388BBC09A789402
:06017000FFCFF894FFCF61
:00000001FF
